{
  "_format": "hh-sol-artifact-1",
  "contractName": "MusicNFTMarketplace",
  "sourceName": "src/backend/contracts/MusicNFTMarketplace.sol",
  "abi": [
    {
      "inputs": [
        {
          "internalType": "uint256",
          "name": "_royaltyFee",
          "type": "uint256"
        },
        {
          "internalType": "address",
          "name": "_artist",
          "type": "address"
        },
        {
          "internalType": "uint256[]",
          "name": "_prices",
          "type": "uint256[]"
        }
      ],
      "stateMutability": "payable",
      "type": "constructor"
    },
    {
      "anonymous": false,
      "inputs": [
        {
          "indexed": true,
          "internalType": "address",
          "name": "owner",
          "type": "address"
        },
        {
          "indexed": true,
          "internalType": "address",
          "name": "approved",
          "type": "address"
        },
        {
          "indexed": true,
          "internalType": "uint256",
          "name": "tokenId",
          "type": "uint256"
        }
      ],
      "name": "Approval",
      "type": "event"
    },
    {
      "anonymous": false,
      "inputs": [
        {
          "indexed": true,
          "internalType": "address",
          "name": "owner",
          "type": "address"
        },
        {
          "indexed": true,
          "internalType": "address",
          "name": "operator",
          "type": "address"
        },
        {
          "indexed": false,
          "internalType": "bool",
          "name": "approved",
          "type": "bool"
        }
      ],
      "name": "ApprovalForAll",
      "type": "event"
    },
    {
      "anonymous": false,
      "inputs": [
        {
          "indexed": true,
          "internalType": "uint256",
          "name": "tokenId",
          "type": "uint256"
        },
        {
          "indexed": true,
          "internalType": "address",
          "name": "seller",
          "type": "address"
        },
        {
          "indexed": false,
          "internalType": "address",
          "name": "buyer",
          "type": "address"
        },
        {
          "indexed": false,
          "internalType": "uint256",
          "name": "price",
          "type": "uint256"
        }
      ],
      "name": "MarketItemBought",
      "type": "event"
    },
    {
      "anonymous": false,
      "inputs": [
        {
          "indexed": true,
          "internalType": "uint256",
          "name": "tokenId",
          "type": "uint256"
        },
        {
          "indexed": true,
          "internalType": "address",
          "name": "seller",
          "type": "address"
        },
        {
          "indexed": false,
          "internalType": "uint256",
          "name": "price",
          "type": "uint256"
        }
      ],
      "name": "MarketItemRelisted",
      "type": "event"
    },
    {
      "anonymous": false,
      "inputs": [
        {
          "indexed": true,
          "internalType": "address",
          "name": "previousOwner",
          "type": "address"
        },
        {
          "indexed": true,
          "internalType": "address",
          "name": "newOwner",
          "type": "address"
        }
      ],
      "name": "OwnershipTransferred",
      "type": "event"
    },
    {
      "anonymous": false,
      "inputs": [
        {
          "indexed": true,
          "internalType": "address",
          "name": "from",
          "type": "address"
        },
        {
          "indexed": true,
          "internalType": "address",
          "name": "to",
          "type": "address"
        },
        {
          "indexed": true,
          "internalType": "uint256",
          "name": "tokenId",
          "type": "uint256"
        }
      ],
      "name": "Transfer",
      "type": "event"
    },
    {
      "inputs": [
        {
          "internalType": "address",
          "name": "to",
          "type": "address"
        },
        {
          "internalType": "uint256",
          "name": "tokenId",
          "type": "uint256"
        }
      ],
      "name": "approve",
      "outputs": [],
      "stateMutability": "nonpayable",
      "type": "function"
    },
    {
      "inputs": [],
      "name": "artist",
      "outputs": [
        {
          "internalType": "address",
          "name": "",
          "type": "address"
        }
      ],
      "stateMutability": "view",
      "type": "function"
    },
    {
      "inputs": [
        {
          "internalType": "address",
          "name": "owner",
          "type": "address"
        }
      ],
      "name": "balanceOf",
      "outputs": [
        {
          "internalType": "uint256",
          "name": "",
          "type": "uint256"
        }
      ],
      "stateMutability": "view",
      "type": "function"
    },
    {
      "inputs": [],
      "name": "baseExtension",
      "outputs": [
        {
          "internalType": "string",
          "name": "",
          "type": "string"
        }
      ],
      "stateMutability": "view",
      "type": "function"
    },
    {
      "inputs": [],
      "name": "baseURI",
      "outputs": [
        {
          "internalType": "string",
          "name": "",
          "type": "string"
        }
      ],
      "stateMutability": "view",
      "type": "function"
    },
    {
      "inputs": [
        {
          "internalType": "uint256",
          "name": "_tokenId",
          "type": "uint256"
        }
      ],
      "name": "buyToken",
      "outputs": [],
      "stateMutability": "payable",
      "type": "function"
    },
    {
      "inputs": [],
      "name": "getAllUnsoldTokens",
      "outputs": [
        {
          "components": [
            {
              "internalType": "uint256",
              "name": "tokenId",
              "type": "uint256"
            },
            {
              "internalType": "address payable",
              "name": "seller",
              "type": "address"
            },
            {
              "internalType": "uint256",
              "name": "price",
              "type": "uint256"
            }
          ],
          "internalType": "struct MusicNFTMarketplace.MarketItem[]",
          "name": "",
          "type": "tuple[]"
        }
      ],
      "stateMutability": "view",
      "type": "function"
    },
    {
      "inputs": [
        {
          "internalType": "uint256",
          "name": "tokenId",
          "type": "uint256"
        }
      ],
      "name": "getApproved",
      "outputs": [
        {
          "internalType": "address",
          "name": "",
          "type": "address"
        }
      ],
      "stateMutability": "view",
      "type": "function"
    },
    {
      "inputs": [],
      "name": "getMyTokens",
      "outputs": [
        {
          "components": [
            {
              "internalType": "uint256",
              "name": "tokenId",
              "type": "uint256"
            },
            {
              "internalType": "address payable",
              "name": "seller",
              "type": "address"
            },
            {
              "internalType": "uint256",
              "name": "price",
              "type": "uint256"
            }
          ],
          "internalType": "struct MusicNFTMarketplace.MarketItem[]",
          "name": "",
          "type": "tuple[]"
        }
      ],
      "stateMutability": "view",
      "type": "function"
    },
    {
      "inputs": [
        {
          "internalType": "address",
          "name": "owner",
          "type": "address"
        },
        {
          "internalType": "address",
          "name": "operator",
          "type": "address"
        }
      ],
      "name": "isApprovedForAll",
      "outputs": [
        {
          "internalType": "bool",
          "name": "",
          "type": "bool"
        }
      ],
      "stateMutability": "view",
      "type": "function"
    },
    {
      "inputs": [
        {
          "internalType": "uint256",
          "name": "",
          "type": "uint256"
        }
      ],
      "name": "marketItems",
      "outputs": [
        {
          "internalType": "uint256",
          "name": "tokenId",
          "type": "uint256"
        },
        {
          "internalType": "address payable",
          "name": "seller",
          "type": "address"
        },
        {
          "internalType": "uint256",
          "name": "price",
          "type": "uint256"
        }
      ],
      "stateMutability": "view",
      "type": "function"
    },
    {
      "inputs": [],
      "name": "name",
      "outputs": [
        {
          "internalType": "string",
          "name": "",
          "type": "string"
        }
      ],
      "stateMutability": "view",
      "type": "function"
    },
    {
      "inputs": [],
      "name": "owner",
      "outputs": [
        {
          "internalType": "address",
          "name": "",
          "type": "address"
        }
      ],
      "stateMutability": "view",
      "type": "function"
    },
    {
      "inputs": [
        {
          "internalType": "uint256",
          "name": "tokenId",
          "type": "uint256"
        }
      ],
      "name": "ownerOf",
      "outputs": [
        {
          "internalType": "address",
          "name": "",
          "type": "address"
        }
      ],
      "stateMutability": "view",
      "type": "function"
    },
    {
      "inputs": [],
      "name": "renounceOwnership",
      "outputs": [],
      "stateMutability": "nonpayable",
      "type": "function"
    },
    {
      "inputs": [
        {
          "internalType": "uint256",
          "name": "_tokenId",
          "type": "uint256"
        },
        {
          "internalType": "uint256",
          "name": "_price",
          "type": "uint256"
        }
      ],
      "name": "resellToken",
      "outputs": [],
      "stateMutability": "payable",
      "type": "function"
    },
    {
      "inputs": [],
      "name": "royaltyFee",
      "outputs": [
        {
          "internalType": "uint256",
          "name": "",
          "type": "uint256"
        }
      ],
      "stateMutability": "view",
      "type": "function"
    },
    {
      "inputs": [
        {
          "internalType": "address",
          "name": "from",
          "type": "address"
        },
        {
          "internalType": "address",
          "name": "to",
          "type": "address"
        },
        {
          "internalType": "uint256",
          "name": "tokenId",
          "type": "uint256"
        }
      ],
      "name": "safeTransferFrom",
      "outputs": [],
      "stateMutability": "nonpayable",
      "type": "function"
    },
    {
      "inputs": [
        {
          "internalType": "address",
          "name": "from",
          "type": "address"
        },
        {
          "internalType": "address",
          "name": "to",
          "type": "address"
        },
        {
          "internalType": "uint256",
          "name": "tokenId",
          "type": "uint256"
        },
        {
          "internalType": "bytes",
          "name": "data",
          "type": "bytes"
        }
      ],
      "name": "safeTransferFrom",
      "outputs": [],
      "stateMutability": "nonpayable",
      "type": "function"
    },
    {
      "inputs": [
        {
          "internalType": "address",
          "name": "operator",
          "type": "address"
        },
        {
          "internalType": "bool",
          "name": "approved",
          "type": "bool"
        }
      ],
      "name": "setApprovalForAll",
      "outputs": [],
      "stateMutability": "nonpayable",
      "type": "function"
    },
    {
      "inputs": [
        {
          "internalType": "bytes4",
          "name": "interfaceId",
          "type": "bytes4"
        }
      ],
      "name": "supportsInterface",
      "outputs": [
        {
          "internalType": "bool",
          "name": "",
          "type": "bool"
        }
      ],
      "stateMutability": "view",
      "type": "function"
    },
    {
      "inputs": [],
      "name": "symbol",
      "outputs": [
        {
          "internalType": "string",
          "name": "",
          "type": "string"
        }
      ],
      "stateMutability": "view",
      "type": "function"
    },
    {
      "inputs": [
        {
          "internalType": "uint256",
          "name": "tokenId",
          "type": "uint256"
        }
      ],
      "name": "tokenURI",
      "outputs": [
        {
          "internalType": "string",
          "name": "",
          "type": "string"
        }
      ],
      "stateMutability": "view",
      "type": "function"
    },
    {
      "inputs": [
        {
          "internalType": "address",
          "name": "from",
          "type": "address"
        },
        {
          "internalType": "address",
          "name": "to",
          "type": "address"
        },
        {
          "internalType": "uint256",
          "name": "tokenId",
          "type": "uint256"
        }
      ],
      "name": "transferFrom",
      "outputs": [],
      "stateMutability": "nonpayable",
      "type": "function"
    },
    {
      "inputs": [
        {
          "internalType": "address",
          "name": "newOwner",
          "type": "address"
        }
      ],
      "name": "transferOwnership",
      "outputs": [],
      "stateMutability": "nonpayable",
      "type": "function"
    },
    {
      "inputs": [
        {
          "internalType": "uint256",
          "name": "_royaltyFee",
          "type": "uint256"
        }
      ],
      "name": "updateRoyaltyFee",
      "outputs": [],
      "stateMutability": "nonpayable",
      "type": "function"
    }
  ],
  "bytecode": "0x6080604052604051806080016040528060598152602001620045906059913960079080519060200190620000359291906200077b565b506040518060400160405280600581526020017f2e6a736f6e00000000000000000000000000000000000000000000000000000081525060089080519060200190620000839291906200077b565b50604051620045e9380380620045e98339818101604052810190620000a99190620008fb565b6040518060400160405280600681526020017f44417070466900000000000000000000000000000000000000000000000000008152506040518060400160405280600481526020017f444150500000000000000000000000000000000000000000000000000000000081525081600090805190602001906200012d9291906200077b565b508060019080519060200190620001469291906200077b565b505050620001696200015d620003d460201b60201c565b620003dc60201b60201c565b3483825162000179919062000af7565b1115620001bd576040517f08c379a0000000000000000000000000000000000000000000000000000000008152600401620001b49062000a4a565b60405180910390fd5b82600a8190555081600960006101000a81548173ffffffffffffffffffffffffffffffffffffffff021916908373ffffffffffffffffffffffffffffffffffffffff16021790555060005b81518160ff161015620003ca576000828260ff168151811062000254577f4e487b7100000000000000000000000000000000000000000000000000000000600052603260045260246000fd5b6020026020010151116200029f576040517f08c379a0000000000000000000000000000000000000000000000000000000008152600401620002969062000a6c565b60405180910390fd5b620002b4308260ff16620004a260201b60201c565b600b60405180606001604052808360ff1681526020013373ffffffffffffffffffffffffffffffffffffffff168152602001848460ff168151811062000323577f4e487b7100000000000000000000000000000000000000000000000000000000600052603260045260246000fd5b602002602001015181525090806001815401808255809150506001900390600052602060002090600302016000909190919091506000820151816000015560208201518160010160006101000a81548173ffffffffffffffffffffffffffffffffffffffff021916908373ffffffffffffffffffffffffffffffffffffffff1602179055506040820151816002015550508080620003c19062000c0f565b91505062000208565b5050505062000e00565b600033905090565b6000600660009054906101000a900473ffffffffffffffffffffffffffffffffffffffff16905081600660006101000a81548173ffffffffffffffffffffffffffffffffffffffff021916908373ffffffffffffffffffffffffffffffffffffffff1602179055508173ffffffffffffffffffffffffffffffffffffffff168173ffffffffffffffffffffffffffffffffffffffff167f8be0079c531659141344cd1fd0a4f28419497f9722a3daafe3b4186f6b6457e060405160405180910390a35050565b600073ffffffffffffffffffffffffffffffffffffffff168273ffffffffffffffffffffffffffffffffffffffff16141562000515576040517f08c379a00000000000000000000000000000000000000000000000000000000081526004016200050c9062000a28565b60405180910390fd5b6200052681620006e960201b60201c565b1562000569576040517f08c379a0000000000000000000000000000000000000000000000000000000008152600401620005609062000a06565b60405180910390fd5b6200057f6000838360016200073260201b60201c565b6200059081620006e960201b60201c565b15620005d3576040517f08c379a0000000000000000000000000000000000000000000000000000000008152600401620005ca9062000a06565b60405180910390fd5b6001600360008473ffffffffffffffffffffffffffffffffffffffff1673ffffffffffffffffffffffffffffffffffffffff16815260200190815260200160002060008282540192505081905550816002600083815260200190815260200160002060006101000a81548173ffffffffffffffffffffffffffffffffffffffff021916908373ffffffffffffffffffffffffffffffffffffffff160217905550808273ffffffffffffffffffffffffffffffffffffffff16600073ffffffffffffffffffffffffffffffffffffffff167fddf252ad1be2c89b69c2b068fc378daa952ba7f163c4a11628f55a4df523b3ef60405160405180910390a4620006e56000838360016200073860201b60201c565b5050565b60008073ffffffffffffffffffffffffffffffffffffffff1662000713836200073e60201b60201c565b73ffffffffffffffffffffffffffffffffffffffff1614159050919050565b50505050565b50505050565b60006002600083815260200190815260200160002060009054906101000a900473ffffffffffffffffffffffffffffffffffffffff169050919050565b828054620007899062000ba3565b90600052602060002090601f016020900481019282620007ad5760008555620007f9565b82601f10620007c857805160ff1916838001178555620007f9565b82800160010185558215620007f9579182015b82811115620007f8578251825591602001919060010190620007db565b5b5090506200080891906200080c565b5090565b5b80821115620008275760008160009055506001016200080d565b5090565b6000620008426200083c8462000ab7565b62000a8e565b905080838252602082019050828560208602820111156200086257600080fd5b60005b858110156200089657816200087b8882620008e4565b84526020840193506020830192505060018101905062000865565b5050509392505050565b600081519050620008b18162000dcc565b92915050565b600082601f830112620008c957600080fd5b8151620008db8482602086016200082b565b91505092915050565b600081519050620008f58162000de6565b92915050565b6000806000606084860312156200091157600080fd5b60006200092186828701620008e4565b93505060206200093486828701620008a0565b925050604084015167ffffffffffffffff8111156200095257600080fd5b6200096086828701620008b7565b9150509250925092565b600062000979601c8362000ae6565b9150620009868262000cdc565b602082019050919050565b6000620009a060208362000ae6565b9150620009ad8262000d05565b602082019050919050565b6000620009c760468362000ae6565b9150620009d48262000d2e565b606082019050919050565b6000620009ee601c8362000ae6565b9150620009fb8262000da3565b602082019050919050565b6000602082019050818103600083015262000a21816200096a565b9050919050565b6000602082019050818103600083015262000a438162000991565b9050919050565b6000602082019050818103600083015262000a6581620009b8565b9050919050565b6000602082019050818103600083015262000a8781620009df565b9050919050565b600062000a9a62000aad565b905062000aa8828262000bd9565b919050565b6000604051905090565b600067ffffffffffffffff82111562000ad55762000ad462000c9c565b5b602082029050602081019050919050565b600082825260208201905092915050565b600062000b048262000b8c565b915062000b118362000b8c565b9250817fffffffffffffffffffffffffffffffffffffffffffffffffffffffffffffffff048311821515161562000b4d5762000b4c62000c3e565b5b828202905092915050565b600062000b658262000b6c565b9050919050565b600073ffffffffffffffffffffffffffffffffffffffff82169050919050565b6000819050919050565b600060ff82169050919050565b6000600282049050600182168062000bbc57607f821691505b6020821081141562000bd35762000bd262000c6d565b5b50919050565b62000be48262000ccb565b810181811067ffffffffffffffff8211171562000c065762000c0562000c9c565b5b80604052505050565b600062000c1c8262000b96565b915060ff82141562000c335762000c3262000c3e565b5b600182019050919050565b7f4e487b7100000000000000000000000000000000000000000000000000000000600052601160045260246000fd5b7f4e487b7100000000000000000000000000000000000000000000000000000000600052602260045260246000fd5b7f4e487b7100000000000000000000000000000000000000000000000000000000600052604160045260246000fd5b6000601f19601f8301169050919050565b7f4552433732313a20746f6b656e20616c7265616479206d696e74656400000000600082015250565b7f4552433732313a206d696e7420746f20746865207a65726f2061646472657373600082015250565b7f4465706c6f796572206d7573742070617920726f79616c74792066656520666f60008201527f72206561636820746f6b656e206c6973746564206f6e20746865206d61726b6560208201527f74706c6163650000000000000000000000000000000000000000000000000000604082015250565b7f5072696365206d7573742062652067726561746572207468616e203000000000600082015250565b62000dd78162000b58565b811462000de357600080fd5b50565b62000df18162000b8c565b811462000dfd57600080fd5b50565b6137808062000e106000396000f3fe6080604052600436106101815760003560e01c806370a08231116100d1578063b88d4fde1161008a578063c87b56dd11610064578063c87b56dd14610565578063e219fc75146105a2578063e985e9c5146105be578063f2fde38b146105fb57610181565b8063b88d4fde146104e6578063b8997a971461050f578063c66828621461053a57610181565b806370a08231146103e8578063715018a614610425578063767dd0761461043c5780638da5cb5b1461046757806395d89b4114610492578063a22cb465146104bd57610181565b806342842e0e1161013e57806351f28e141161011857806351f28e14146103165780635b3b136a146103555780636352211e146103805780636c0360eb146103bd57610181565b806342842e0e1461029957806343bc1612146102c25780634e83be47146102ed57610181565b806301ffc9a71461018657806306fdde03146101c3578063081812fc146101ee578063095ea7b31461022b57806323b872dd146102545780632d296bf11461027d575b600080fd5b34801561019257600080fd5b506101ad60048036038101906101a891906128fb565b610624565b6040516101ba9190612e27565b60405180910390f35b3480156101cf57600080fd5b506101d8610706565b6040516101e59190612e42565b60405180910390f35b3480156101fa57600080fd5b506102156004803603810190610210919061294d565b610798565b6040516102229190612d75565b60405180910390f35b34801561023757600080fd5b50610252600480360381019061024d91906128bf565b6107de565b005b34801561026057600080fd5b5061027b600480360381019061027691906127b9565b6108f6565b005b6102976004803603810190610292919061294d565b610956565b005b3480156102a557600080fd5b506102c060048036038101906102bb91906127b9565b610bf6565b005b3480156102ce57600080fd5b506102d7610c16565b6040516102e49190612d75565b60405180910390f35b3480156102f957600080fd5b50610314600480360381019061030f919061294d565b610c3c565b005b34801561032257600080fd5b5061033d6004803603810190610338919061294d565b610c4e565b60405161034c9392919061303f565b60405180910390f35b34801561036157600080fd5b5061036a610ca8565b6040516103779190612e05565b60405180910390f35b34801561038c57600080fd5b506103a760048036038101906103a2919061294d565b610eb3565b6040516103b49190612d75565b60405180910390f35b3480156103c957600080fd5b506103d2610f3a565b6040516103df9190612e42565b60405180910390f35b3480156103f457600080fd5b5061040f600480360381019061040a9190612754565b610fc8565b60405161041c9190613024565b60405180910390f35b34801561043157600080fd5b5061043a611080565b005b34801561044857600080fd5b50610451611094565b60405161045e9190612e05565b60405180910390f35b34801561047357600080fd5b5061047c611302565b6040516104899190612d75565b60405180910390f35b34801561049e57600080fd5b506104a761132c565b6040516104b49190612e42565b60405180910390f35b3480156104c957600080fd5b506104e460048036038101906104df9190612883565b6113be565b005b3480156104f257600080fd5b5061050d60048036038101906105089190612808565b6113d4565b005b34801561051b57600080fd5b50610524611436565b6040516105319190613024565b60405180910390f35b34801561054657600080fd5b5061054f61143c565b60405161055c9190612e42565b60405180910390f35b34801561057157600080fd5b5061058c6004803603810190610587919061294d565b6114ca565b6040516105999190612e42565b60405180910390f35b6105bc60048036038101906105b79190612976565b611532565b005b3480156105ca57600080fd5b506105e560048036038101906105e0919061277d565b6116f1565b6040516105f29190612e27565b60405180910390f35b34801561060757600080fd5b50610622600480360381019061061d9190612754565b611785565b005b60007f80ac58cd000000000000000000000000000000000000000000000000000000007bffffffffffffffffffffffffffffffffffffffffffffffffffffffff1916827bffffffffffffffffffffffffffffffffffffffffffffffffffffffff191614806106ef57507f5b5e139f000000000000000000000000000000000000000000000000000000007bffffffffffffffffffffffffffffffffffffffffffffffffffffffff1916827bffffffffffffffffffffffffffffffffffffffffffffffffffffffff1916145b806106ff57506106fe82611809565b5b9050919050565b60606000805461071590613210565b80601f016020809104026020016040519081016040528092919081815260200182805461074190613210565b801561078e5780601f106107635761010080835404028352916020019161078e565b820191906000526020600020905b81548152906001019060200180831161077157829003601f168201915b5050505050905090565b60006107a382611873565b6004600083815260200190815260200160002060009054906101000a900473ffffffffffffffffffffffffffffffffffffffff169050919050565b60006107e982610eb3565b90508073ffffffffffffffffffffffffffffffffffffffff168373ffffffffffffffffffffffffffffffffffffffff16141561085a576040517f08c379a000000000000000000000000000000000000000000000000000000000815260040161085190612fe4565b60405180910390fd5b8073ffffffffffffffffffffffffffffffffffffffff166108796118be565b73ffffffffffffffffffffffffffffffffffffffff1614806108a857506108a7816108a26118be565b6116f1565b5b6108e7576040517f08c379a00000000000000000000000000000000000000000000000000000000081526004016108de90613004565b60405180910390fd5b6108f183836118c6565b505050565b6109076109016118be565b8261197f565b610946576040517f08c379a000000000000000000000000000000000000000000000000000000000815260040161093d90612e64565b60405180910390fd5b610951838383611a14565b505050565b6000600b8281548110610992577f4e487b7100000000000000000000000000000000000000000000000000000000600052603260045260246000fd5b90600052602060002090600302016002015490506000600b83815481106109e2577f4e487b7100000000000000000000000000000000000000000000000000000000600052603260045260246000fd5b906000526020600020906003020160010160009054906101000a900473ffffffffffffffffffffffffffffffffffffffff169050813414610a58576040517f08c379a0000000000000000000000000000000000000000000000000000000008152600401610a4f90612f84565b60405180910390fd5b6000600b8481548110610a94577f4e487b7100000000000000000000000000000000000000000000000000000000600052603260045260246000fd5b906000526020600020906003020160010160006101000a81548173ffffffffffffffffffffffffffffffffffffffff021916908373ffffffffffffffffffffffffffffffffffffffff160217905550610aee303385611a14565b600960009054906101000a900473ffffffffffffffffffffffffffffffffffffffff1673ffffffffffffffffffffffffffffffffffffffff166108fc600a549081150290604051600060405180830381858888f19350505050158015610b58573d6000803e3d6000fd5b508073ffffffffffffffffffffffffffffffffffffffff166108fc349081150290604051600060405180830381858888f19350505050158015610b9f573d6000803e3d6000fd5b508073ffffffffffffffffffffffffffffffffffffffff16837fd356b8423ef89ccba8e4f1dbeccc60b41825fd97d432f2e6a6dbd11ae6ecec113385604051610be9929190612ddc565b60405180910390a3505050565b610c11838383604051806020016040528060008152506113d4565b505050565b600960009054906101000a900473ffffffffffffffffffffffffffffffffffffffff1681565b610c44611d0e565b80600a8190555050565b600b8181548110610c5e57600080fd5b90600052602060002090600302016000915090508060000154908060010160009054906101000a900473ffffffffffffffffffffffffffffffffffffffff16908060020154905083565b60606000610cb533610fc8565b905060008167ffffffffffffffff811115610cf9577f4e487b7100000000000000000000000000000000000000000000000000000000600052604160045260246000fd5b604051908082528060200260200182016040528015610d3257816020015b610d1f61264c565b815260200190600190039081610d175790505b509050600080600090505b600b80549050811015610ea9573373ffffffffffffffffffffffffffffffffffffffff16610d6a82610eb3565b73ffffffffffffffffffffffffffffffffffffffff161415610e9657600b8181548110610dc0577f4e487b7100000000000000000000000000000000000000000000000000000000600052603260045260246000fd5b9060005260206000209060030201604051806060016040529081600082015481526020016001820160009054906101000a900473ffffffffffffffffffffffffffffffffffffffff1673ffffffffffffffffffffffffffffffffffffffff1673ffffffffffffffffffffffffffffffffffffffff168152602001600282015481525050838381518110610e7c577f4e487b7100000000000000000000000000000000000000000000000000000000600052603260045260246000fd5b60200260200101819052508180610e9290613273565b9250505b8080610ea190613273565b915050610d3d565b5081935050505090565b600080610ebf83611d8c565b9050600073ffffffffffffffffffffffffffffffffffffffff168173ffffffffffffffffffffffffffffffffffffffff161415610f31576040517f08c379a0000000000000000000000000000000000000000000000000000000008152600401610f2890612fc4565b60405180910390fd5b80915050919050565b60078054610f4790613210565b80601f0160208091040260200160405190810160405280929190818152602001828054610f7390613210565b8015610fc05780601f10610f9557610100808354040283529160200191610fc0565b820191906000526020600020905b815481529060010190602001808311610fa357829003601f168201915b505050505081565b60008073ffffffffffffffffffffffffffffffffffffffff168273ffffffffffffffffffffffffffffffffffffffff161415611039576040517f08c379a000000000000000000000000000000000000000000000000000000000815260040161103090612f64565b60405180910390fd5b600360008373ffffffffffffffffffffffffffffffffffffffff1673ffffffffffffffffffffffffffffffffffffffff168152602001908152602001600020549050919050565b611088611d0e565b6110926000611dc9565b565b606060006110a130610fc8565b905060008167ffffffffffffffff8111156110e5577f4e487b7100000000000000000000000000000000000000000000000000000000600052604160045260246000fd5b60405190808252806020026020018201604052801561111e57816020015b61110b61264c565b8152602001906001900390816111035790505b509050600080600090505b600b805490508110156112f857600073ffffffffffffffffffffffffffffffffffffffff16600b8281548110611188577f4e487b7100000000000000000000000000000000000000000000000000000000600052603260045260246000fd5b906000526020600020906003020160010160009054906101000a900473ffffffffffffffffffffffffffffffffffffffff1673ffffffffffffffffffffffffffffffffffffffff16146112e557600b818154811061120f577f4e487b7100000000000000000000000000000000000000000000000000000000600052603260045260246000fd5b9060005260206000209060030201604051806060016040529081600082015481526020016001820160009054906101000a900473ffffffffffffffffffffffffffffffffffffffff1673ffffffffffffffffffffffffffffffffffffffff1673ffffffffffffffffffffffffffffffffffffffff1681526020016002820154815250508383815181106112cb577f4e487b7100000000000000000000000000000000000000000000000000000000600052603260045260246000fd5b602002602001018190525081806112e190613273565b9250505b80806112f090613273565b915050611129565b5081935050505090565b6000600660009054906101000a900473ffffffffffffffffffffffffffffffffffffffff16905090565b60606001805461133b90613210565b80601f016020809104026020016040519081016040528092919081815260200182805461136790613210565b80156113b45780601f10611389576101008083540402835291602001916113b4565b820191906000526020600020905b81548152906001019060200180831161139757829003601f168201915b5050505050905090565b6113d06113c96118be565b8383611e8f565b5050565b6113e56113df6118be565b8361197f565b611424576040517f08c379a000000000000000000000000000000000000000000000000000000000815260040161141b90612e64565b60405180910390fd5b61143084848484611ffc565b50505050565b600a5481565b6008805461144990613210565b80601f016020809104026020016040519081016040528092919081815260200182805461147590613210565b80156114c25780601f10611497576101008083540402835291602001916114c2565b820191906000526020600020905b8154815290600101906020018083116114a557829003601f168201915b505050505081565b60606114d582611873565b60006114df612058565b905060008151116114ff576040518060200160405280600081525061152a565b80611509846120ea565b60405160200161151a929190612d51565b6040516020818303038152906040525b915050919050565b600a543414611576576040517f08c379a000000000000000000000000000000000000000000000000000000000815260040161156d90612f04565b60405180910390fd5b600081116115b9576040517f08c379a00000000000000000000000000000000000000000000000000000000081526004016115b090612e84565b60405180910390fd5b80600b83815481106115f4577f4e487b7100000000000000000000000000000000000000000000000000000000600052603260045260246000fd5b90600052602060002090600302016002018190555033600b8381548110611644577f4e487b7100000000000000000000000000000000000000000000000000000000600052603260045260246000fd5b906000526020600020906003020160010160006101000a81548173ffffffffffffffffffffffffffffffffffffffff021916908373ffffffffffffffffffffffffffffffffffffffff16021790555061169e333084611a14565b3373ffffffffffffffffffffffffffffffffffffffff16827fb2ba12d2566848b13548a3741edb565b69d3cbce7796959cd67431610207eb13836040516116e59190613024565b60405180910390a35050565b6000600560008473ffffffffffffffffffffffffffffffffffffffff1673ffffffffffffffffffffffffffffffffffffffff16815260200190815260200160002060008373ffffffffffffffffffffffffffffffffffffffff1673ffffffffffffffffffffffffffffffffffffffff16815260200190815260200160002060009054906101000a900460ff16905092915050565b61178d611d0e565b600073ffffffffffffffffffffffffffffffffffffffff168173ffffffffffffffffffffffffffffffffffffffff1614156117fd576040517f08c379a00000000000000000000000000000000000000000000000000000000081526004016117f490612ec4565b60405180910390fd5b61180681611dc9565b50565b60007f01ffc9a7000000000000000000000000000000000000000000000000000000007bffffffffffffffffffffffffffffffffffffffffffffffffffffffff1916827bffffffffffffffffffffffffffffffffffffffffffffffffffffffff1916149050919050565b61187c8161220e565b6118bb576040517f08c379a00000000000000000000000000000000000000000000000000000000081526004016118b290612fc4565b60405180910390fd5b50565b600033905090565b816004600083815260200190815260200160002060006101000a81548173ffffffffffffffffffffffffffffffffffffffff021916908373ffffffffffffffffffffffffffffffffffffffff160217905550808273ffffffffffffffffffffffffffffffffffffffff1661193983610eb3565b73ffffffffffffffffffffffffffffffffffffffff167f8c5be1e5ebec7d5bd14f71427d1e84f3dd0314c0f7b2291e5b200ac8c7c3b92560405160405180910390a45050565b60008061198b83610eb3565b90508073ffffffffffffffffffffffffffffffffffffffff168473ffffffffffffffffffffffffffffffffffffffff1614806119cd57506119cc81856116f1565b5b80611a0b57508373ffffffffffffffffffffffffffffffffffffffff166119f384610798565b73ffffffffffffffffffffffffffffffffffffffff16145b91505092915050565b8273ffffffffffffffffffffffffffffffffffffffff16611a3482610eb3565b73ffffffffffffffffffffffffffffffffffffffff1614611a8a576040517f08c379a0000000000000000000000000000000000000000000000000000000008152600401611a8190612ee4565b60405180910390fd5b600073ffffffffffffffffffffffffffffffffffffffff168273ffffffffffffffffffffffffffffffffffffffff161415611afa576040517f08c379a0000000000000000000000000000000000000000000000000000000008152600401611af190612f24565b60405180910390fd5b611b07838383600161224f565b8273ffffffffffffffffffffffffffffffffffffffff16611b2782610eb3565b73ffffffffffffffffffffffffffffffffffffffff1614611b7d576040517f08c379a0000000000000000000000000000000000000000000000000000000008152600401611b7490612ee4565b60405180910390fd5b6004600082815260200190815260200160002060006101000a81549073ffffffffffffffffffffffffffffffffffffffff02191690556001600360008573ffffffffffffffffffffffffffffffffffffffff1673ffffffffffffffffffffffffffffffffffffffff168152602001908152602001600020600082825403925050819055506001600360008473ffffffffffffffffffffffffffffffffffffffff1673ffffffffffffffffffffffffffffffffffffffff16815260200190815260200160002060008282540192505081905550816002600083815260200190815260200160002060006101000a81548173ffffffffffffffffffffffffffffffffffffffff021916908373ffffffffffffffffffffffffffffffffffffffff160217905550808273ffffffffffffffffffffffffffffffffffffffff168473ffffffffffffffffffffffffffffffffffffffff167fddf252ad1be2c89b69c2b068fc378daa952ba7f163c4a11628f55a4df523b3ef60405160405180910390a4611d098383836001612255565b505050565b611d166118be565b73ffffffffffffffffffffffffffffffffffffffff16611d34611302565b73ffffffffffffffffffffffffffffffffffffffff1614611d8a576040517f08c379a0000000000000000000000000000000000000000000000000000000008152600401611d8190612fa4565b60405180910390fd5b565b60006002600083815260200190815260200160002060009054906101000a900473ffffffffffffffffffffffffffffffffffffffff169050919050565b6000600660009054906101000a900473ffffffffffffffffffffffffffffffffffffffff16905081600660006101000a81548173ffffffffffffffffffffffffffffffffffffffff021916908373ffffffffffffffffffffffffffffffffffffffff1602179055508173ffffffffffffffffffffffffffffffffffffffff168173ffffffffffffffffffffffffffffffffffffffff167f8be0079c531659141344cd1fd0a4f28419497f9722a3daafe3b4186f6b6457e060405160405180910390a35050565b8173ffffffffffffffffffffffffffffffffffffffff168373ffffffffffffffffffffffffffffffffffffffff161415611efe576040517f08c379a0000000000000000000000000000000000000000000000000000000008152600401611ef590612f44565b60405180910390fd5b80600560008573ffffffffffffffffffffffffffffffffffffffff1673ffffffffffffffffffffffffffffffffffffffff16815260200190815260200160002060008473ffffffffffffffffffffffffffffffffffffffff1673ffffffffffffffffffffffffffffffffffffffff16815260200190815260200160002060006101000a81548160ff0219169083151502179055508173ffffffffffffffffffffffffffffffffffffffff168373ffffffffffffffffffffffffffffffffffffffff167f17307eab39ab6107e8899845ad3d59bd9653f200f220920489ca2b5937696c3183604051611fef9190612e27565b60405180910390a3505050565b612007848484611a14565b6120138484848461225b565b612052576040517f08c379a000000000000000000000000000000000000000000000000000000000815260040161204990612ea4565b60405180910390fd5b50505050565b60606007805461206790613210565b80601f016020809104026020016040519081016040528092919081815260200182805461209390613210565b80156120e05780601f106120b5576101008083540402835291602001916120e0565b820191906000526020600020905b8154815290600101906020018083116120c357829003601f168201915b5050505050905090565b6060600060016120f9846123f2565b01905060008167ffffffffffffffff81111561213e577f4e487b7100000000000000000000000000000000000000000000000000000000600052604160045260246000fd5b6040519080825280601f01601f1916602001820160405280156121705781602001600182028036833780820191505090505b509050600082602001820190505b600115612203578080600190039150507f3031323334353637383961626364656600000000000000000000000000000000600a86061a8153600a85816121ed577f4e487b7100000000000000000000000000000000000000000000000000000000600052601260045260246000fd5b04945060008514156121fe57612203565b61217e565b819350505050919050565b60008073ffffffffffffffffffffffffffffffffffffffff1661223083611d8c565b73ffffffffffffffffffffffffffffffffffffffff1614159050919050565b50505050565b50505050565b600061227c8473ffffffffffffffffffffffffffffffffffffffff16612629565b156123e5578373ffffffffffffffffffffffffffffffffffffffff1663150b7a026122a56118be565b8786866040518563ffffffff1660e01b81526004016122c79493929190612d90565b602060405180830381600087803b1580156122e157600080fd5b505af192505050801561231257506040513d601f19601f8201168201806040525081019061230f9190612924565b60015b612395573d8060008114612342576040519150601f19603f3d011682016040523d82523d6000602084013e612347565b606091505b5060008151141561238d576040517f08c379a000000000000000000000000000000000000000000000000000000000815260040161238490612ea4565b60405180910390fd5b805181602001fd5b63150b7a0260e01b7bffffffffffffffffffffffffffffffffffffffffffffffffffffffff1916817bffffffffffffffffffffffffffffffffffffffffffffffffffffffff1916149150506123ea565b600190505b949350505050565b600080600090507a184f03e93ff9f4daa797ed6e38ed64bf6a1f0100000000000000008310612476577a184f03e93ff9f4daa797ed6e38ed64bf6a1f010000000000000000838161246c577f4e487b7100000000000000000000000000000000000000000000000000000000600052601260045260246000fd5b0492506040810190505b6d04ee2d6d415b85acef810000000083106124d9576d04ee2d6d415b85acef810000000083816124cf577f4e487b7100000000000000000000000000000000000000000000000000000000600052601260045260246000fd5b0492506020810190505b662386f26fc10000831061252e57662386f26fc100008381612524577f4e487b7100000000000000000000000000000000000000000000000000000000600052601260045260246000fd5b0492506010810190505b6305f5e100831061257d576305f5e1008381612573577f4e487b7100000000000000000000000000000000000000000000000000000000600052601260045260246000fd5b0492506008810190505b61271083106125c85761271083816125be577f4e487b7100000000000000000000000000000000000000000000000000000000600052601260045260246000fd5b0492506004810190505b606483106126115760648381612607577f4e487b7100000000000000000000000000000000000000000000000000000000600052601260045260246000fd5b0492506002810190505b600a8310612620576001810190505b80915050919050565b6000808273ffffffffffffffffffffffffffffffffffffffff163b119050919050565b604051806060016040528060008152602001600073ffffffffffffffffffffffffffffffffffffffff168152602001600081525090565b60006126966126918461309b565b613076565b9050828152602081018484840111156126ae57600080fd5b6126b98482856131ce565b509392505050565b6000813590506126d0816136ee565b92915050565b6000813590506126e581613705565b92915050565b6000813590506126fa8161371c565b92915050565b60008151905061270f8161371c565b92915050565b600082601f83011261272657600080fd5b8135612736848260208601612683565b91505092915050565b60008135905061274e81613733565b92915050565b60006020828403121561276657600080fd5b6000612774848285016126c1565b91505092915050565b6000806040838503121561279057600080fd5b600061279e858286016126c1565b92505060206127af858286016126c1565b9150509250929050565b6000806000606084860312156127ce57600080fd5b60006127dc868287016126c1565b93505060206127ed868287016126c1565b92505060406127fe8682870161273f565b9150509250925092565b6000806000806080858703121561281e57600080fd5b600061282c878288016126c1565b945050602061283d878288016126c1565b935050604061284e8782880161273f565b925050606085013567ffffffffffffffff81111561286b57600080fd5b61287787828801612715565b91505092959194509250565b6000806040838503121561289657600080fd5b60006128a4858286016126c1565b92505060206128b5858286016126d6565b9150509250929050565b600080604083850312156128d257600080fd5b60006128e0858286016126c1565b92505060206128f18582860161273f565b9150509250929050565b60006020828403121561290d57600080fd5b600061291b848285016126eb565b91505092915050565b60006020828403121561293657600080fd5b600061294484828501612700565b91505092915050565b60006020828403121561295f57600080fd5b600061296d8482850161273f565b91505092915050565b6000806040838503121561298957600080fd5b60006129978582860161273f565b92505060206129a88582860161273f565b9150509250929050565b60006129be8383612cf1565b60608301905092915050565b6129d38161315a565b82525050565b6129e28161315a565b82525050565b6129f181613148565b82525050565b6000612a02826130dc565b612a0c818561310a565b9350612a17836130cc565b8060005b83811015612a48578151612a2f88826129b2565b9750612a3a836130fd565b925050600181019050612a1b565b5085935050505092915050565b612a5e8161316c565b82525050565b6000612a6f826130e7565b612a79818561311b565b9350612a898185602086016131dd565b612a9281613349565b840191505092915050565b6000612aa8826130f2565b612ab2818561312c565b9350612ac28185602086016131dd565b612acb81613349565b840191505092915050565b6000612ae1826130f2565b612aeb818561313d565b9350612afb8185602086016131dd565b80840191505092915050565b6000612b14602d8361312c565b9150612b1f8261335a565b604082019050919050565b6000612b37601f8361312c565b9150612b42826133a9565b602082019050919050565b6000612b5a60328361312c565b9150612b65826133d2565b604082019050919050565b6000612b7d60268361312c565b9150612b8882613421565b604082019050919050565b6000612ba060258361312c565b9150612bab82613470565b604082019050919050565b6000612bc360108361312c565b9150612bce826134bf565b602082019050919050565b6000612be660248361312c565b9150612bf1826134e8565b604082019050919050565b6000612c0960198361312c565b9150612c1482613537565b602082019050919050565b6000612c2c60298361312c565b9150612c3782613560565b604082019050919050565b6000612c4f603e8361312c565b9150612c5a826135af565b604082019050919050565b6000612c7260208361312c565b9150612c7d826135fe565b602082019050919050565b6000612c9560188361312c565b9150612ca082613627565b602082019050919050565b6000612cb860218361312c565b9150612cc382613650565b604082019050919050565b6000612cdb603d8361312c565b9150612ce68261369f565b604082019050919050565b606082016000820151612d076000850182612d33565b506020820151612d1a60208501826129ca565b506040820151612d2d6040850182612d33565b50505050565b612d3c816131c4565b82525050565b612d4b816131c4565b82525050565b6000612d5d8285612ad6565b9150612d698284612ad6565b91508190509392505050565b6000602082019050612d8a60008301846129e8565b92915050565b6000608082019050612da560008301876129e8565b612db260208301866129e8565b612dbf6040830185612d42565b8181036060830152612dd18184612a64565b905095945050505050565b6000604082019050612df160008301856129e8565b612dfe6020830184612d42565b9392505050565b60006020820190508181036000830152612e1f81846129f7565b905092915050565b6000602082019050612e3c6000830184612a55565b92915050565b60006020820190508181036000830152612e5c8184612a9d565b905092915050565b60006020820190508181036000830152612e7d81612b07565b9050919050565b60006020820190508181036000830152612e9d81612b2a565b9050919050565b60006020820190508181036000830152612ebd81612b4d565b9050919050565b60006020820190508181036000830152612edd81612b70565b9050919050565b60006020820190508181036000830152612efd81612b93565b9050919050565b60006020820190508181036000830152612f1d81612bb6565b9050919050565b60006020820190508181036000830152612f3d81612bd9565b9050919050565b60006020820190508181036000830152612f5d81612bfc565b9050919050565b60006020820190508181036000830152612f7d81612c1f565b9050919050565b60006020820190508181036000830152612f9d81612c42565b9050919050565b60006020820190508181036000830152612fbd81612c65565b9050919050565b60006020820190508181036000830152612fdd81612c88565b9050919050565b60006020820190508181036000830152612ffd81612cab565b9050919050565b6000602082019050818103600083015261301d81612cce565b9050919050565b60006020820190506130396000830184612d42565b92915050565b60006060820190506130546000830186612d42565b61306160208301856129d9565b61306e6040830184612d42565b949350505050565b6000613080613091565b905061308c8282613242565b919050565b6000604051905090565b600067ffffffffffffffff8211156130b6576130b561331a565b5b6130bf82613349565b9050602081019050919050565b6000819050602082019050919050565b600081519050919050565b600081519050919050565b600081519050919050565b6000602082019050919050565b600082825260208201905092915050565b600082825260208201905092915050565b600082825260208201905092915050565b600081905092915050565b6000613153826131a4565b9050919050565b6000613165826131a4565b9050919050565b60008115159050919050565b60007fffffffff0000000000000000000000000000000000000000000000000000000082169050919050565b600073ffffffffffffffffffffffffffffffffffffffff82169050919050565b6000819050919050565b82818337600083830152505050565b60005b838110156131fb5780820151818401526020810190506131e0565b8381111561320a576000848401525b50505050565b6000600282049050600182168061322857607f821691505b6020821081141561323c5761323b6132eb565b5b50919050565b61324b82613349565b810181811067ffffffffffffffff8211171561326a5761326961331a565b5b80604052505050565b600061327e826131c4565b91507fffffffffffffffffffffffffffffffffffffffffffffffffffffffffffffffff8214156132b1576132b06132bc565b5b600182019050919050565b7f4e487b7100000000000000000000000000000000000000000000000000000000600052601160045260246000fd5b7f4e487b7100000000000000000000000000000000000000000000000000000000600052602260045260246000fd5b7f4e487b7100000000000000000000000000000000000000000000000000000000600052604160045260246000fd5b6000601f19601f8301169050919050565b7f4552433732313a2063616c6c6572206973206e6f7420746f6b656e206f776e6560008201527f72206f7220617070726f76656400000000000000000000000000000000000000602082015250565b7f5072696365206d7573742062652067726561746572207468616e207a65726f00600082015250565b7f4552433732313a207472616e7366657220746f206e6f6e20455243373231526560008201527f63656976657220696d706c656d656e7465720000000000000000000000000000602082015250565b7f4f776e61626c653a206e6577206f776e657220697320746865207a65726f206160008201527f6464726573730000000000000000000000000000000000000000000000000000602082015250565b7f4552433732313a207472616e736665722066726f6d20696e636f72726563742060008201527f6f776e6572000000000000000000000000000000000000000000000000000000602082015250565b7f4d7573742070617920726f79616c747900000000000000000000000000000000600082015250565b7f4552433732313a207472616e7366657220746f20746865207a65726f2061646460008201527f7265737300000000000000000000000000000000000000000000000000000000602082015250565b7f4552433732313a20617070726f766520746f2063616c6c657200000000000000600082015250565b7f4552433732313a2061646472657373207a65726f206973206e6f74206120766160008201527f6c6964206f776e65720000000000000000000000000000000000000000000000602082015250565b7f506c656173652073656e64207468652061736b696e6720707269636520696e2060008201527f6f7264657220746f20636f6d706c657465207468652070757263686173650000602082015250565b7f4f776e61626c653a2063616c6c6572206973206e6f7420746865206f776e6572600082015250565b7f4552433732313a20696e76616c696420746f6b656e2049440000000000000000600082015250565b7f4552433732313a20617070726f76616c20746f2063757272656e74206f776e6560008201527f7200000000000000000000000000000000000000000000000000000000000000602082015250565b7f4552433732313a20617070726f76652063616c6c6572206973206e6f7420746f60008201527f6b656e206f776e6572206f7220617070726f76656420666f7220616c6c000000602082015250565b6136f781613148565b811461370257600080fd5b50565b61370e8161316c565b811461371957600080fd5b50565b61372581613178565b811461373057600080fd5b50565b61373c816131c4565b811461374757600080fd5b5056fea26469706673582212208833a41a87991740ce2e94d2ae4c8b078c18d842464e77bd1b61fb684a3f1c0c64736f6c6343000804003368747470733a2f2f6261667962656968646876627263647a35736e7373686a636576347a367769376a653673777478686476356333686370646b6d6570377076646a792e697066732e6e667473746f726167652e6c696e6b2f",
  "linkReferences": {},
  "deployedLinkReferences": {}
}